{
  "_format": "hh-sol-artifact-1",
  "contractName": "CarMarketplace",
  "sourceName": "contracts/CarMarketplace.sol",
  "abi": [
    {
      "anonymous": false,
      "inputs": [
        {
          "indexed": false,
          "internalType": "uint256",
          "name": "id",
          "type": "uint256"
        },
        {
          "indexed": false,
          "internalType": "string",
          "name": "name",
          "type": "string"
        },
        {
          "indexed": false,
          "internalType": "string",
          "name": "model",
          "type": "string"
        },
        {
          "indexed": false,
          "internalType": "uint256",
          "name": "price",
          "type": "uint256"
        },
        {
          "indexed": false,
          "internalType": "address",
          "name": "owner",
          "type": "address"
        }
      ],
      "name": "CarListed",
      "type": "event"
    },
    {
      "anonymous": false,
      "inputs": [
        {
          "indexed": false,
          "internalType": "uint256",
          "name": "id",
          "type": "uint256"
        },
        {
          "indexed": false,
          "internalType": "address",
          "name": "buyer",
          "type": "address"
        }
      ],
      "name": "CarSold",
      "type": "event"
    },
    {
      "inputs": [
        {
          "internalType": "uint256",
          "name": "_id",
          "type": "uint256"
        }
      ],
      "name": "buyCar",
      "outputs": [],
      "stateMutability": "payable",
      "type": "function"
    },
    {
      "inputs": [],
      "name": "getAllCars",
      "outputs": [
        {
          "components": [
            {
              "internalType": "uint256",
              "name": "id",
              "type": "uint256"
            },
            {
              "internalType": "string",
              "name": "name",
              "type": "string"
            },
            {
              "internalType": "string",
              "name": "model",
              "type": "string"
            },
            {
              "internalType": "string",
              "name": "image",
              "type": "string"
            },
            {
              "internalType": "uint256",
              "name": "price",
              "type": "uint256"
            },
            {
              "internalType": "address",
              "name": "owner",
              "type": "address"
            },
            {
              "internalType": "bool",
              "name": "isListed",
              "type": "bool"
            }
          ],
          "internalType": "struct CarMarketplace.Car[]",
          "name": "",
          "type": "tuple[]"
        }
      ],
      "stateMutability": "view",
      "type": "function"
    },
    {
      "inputs": [
        {
          "internalType": "uint256",
          "name": "_id",
          "type": "uint256"
        }
      ],
      "name": "getCar",
      "outputs": [
        {
          "components": [
            {
              "internalType": "uint256",
              "name": "id",
              "type": "uint256"
            },
            {
              "internalType": "string",
              "name": "name",
              "type": "string"
            },
            {
              "internalType": "string",
              "name": "model",
              "type": "string"
            },
            {
              "internalType": "string",
              "name": "image",
              "type": "string"
            },
            {
              "internalType": "uint256",
              "name": "price",
              "type": "uint256"
            },
            {
              "internalType": "address",
              "name": "owner",
              "type": "address"
            },
            {
              "internalType": "bool",
              "name": "isListed",
              "type": "bool"
            }
          ],
          "internalType": "struct CarMarketplace.Car",
          "name": "",
          "type": "tuple"
        }
      ],
      "stateMutability": "view",
      "type": "function"
    },
    {
      "inputs": [
        {
          "internalType": "string",
          "name": "_name",
          "type": "string"
        },
        {
          "internalType": "string",
          "name": "_model",
          "type": "string"
        },
        {
          "internalType": "uint256",
          "name": "_price",
          "type": "uint256"
        },
        {
          "internalType": "string",
          "name": "_image",
          "type": "string"
        }
      ],
      "name": "listCar",
      "outputs": [],
      "stateMutability": "nonpayable",
      "type": "function"
    }
  ],
  "bytecode": "0x6080604052348015600f57600080fd5b5061168b8061001f6000396000f3fe60806040526004361061003f5760003560e01c80635e8be190146100445780636c23106014610081578063937c45d41461009d578063abfe5d57146100c6575b600080fd5b34801561005057600080fd5b5061006b60048036038101906100669190610acf565b6100f1565b6040516100789190610ca1565b60405180910390f35b61009b60048036038101906100969190610acf565b610358565b005b3480156100a957600080fd5b506100c460048036038101906100bf9190610df8565b6105a6565b005b3480156100d257600080fd5b506100db610727565b6040516100e8919061101f565b60405180910390f35b6100f9610a30565b6000808381526020019081526020016000206040518060e00160405290816000820154815260200160018201805461013090611070565b80601f016020809104026020016040519081016040528092919081815260200182805461015c90611070565b80156101a95780601f1061017e576101008083540402835291602001916101a9565b820191906000526020600020905b81548152906001019060200180831161018c57829003601f168201915b505050505081526020016002820180546101c290611070565b80601f01602080910402602001604051908101604052809291908181526020018280546101ee90611070565b801561023b5780601f106102105761010080835404028352916020019161023b565b820191906000526020600020905b81548152906001019060200180831161021e57829003601f168201915b5050505050815260200160038201805461025490611070565b80601f016020809104026020016040519081016040528092919081815260200182805461028090611070565b80156102cd5780601f106102a2576101008083540402835291602001916102cd565b820191906000526020600020905b8154815290600101906020018083116102b057829003601f168201915b50505050508152602001600482015481526020016005820160009054906101000a900473ffffffffffffffffffffffffffffffffffffffff1673ffffffffffffffffffffffffffffffffffffffff1673ffffffffffffffffffffffffffffffffffffffff1681526020016005820160149054906101000a900460ff1615151515815250509050919050565b600080600083815260200190815260200160002090508060050160149054906101000a900460ff166103bf576040517f08c379a00000000000000000000000000000000000000000000000000000000081526004016103b6906110fe565b60405180910390fd5b8060040154341015610406576040517f08c379a00000000000000000000000000000000000000000000000000000000081526004016103fd90611190565b60405180910390fd5b3373ffffffffffffffffffffffffffffffffffffffff168160050160009054906101000a900473ffffffffffffffffffffffffffffffffffffffff1673ffffffffffffffffffffffffffffffffffffffff1603610498576040517f08c379a000000000000000000000000000000000000000000000000000000000815260040161048f906111fc565b60405180910390fd5b60008160050160009054906101000a900473ffffffffffffffffffffffffffffffffffffffff169050338260050160006101000a81548173ffffffffffffffffffffffffffffffffffffffff021916908373ffffffffffffffffffffffffffffffffffffffff16021790555060008260050160146101000a81548160ff0219169083151502179055508073ffffffffffffffffffffffffffffffffffffffff166108fc349081150290604051600060405180830381858888f19350505050158015610567573d6000803e3d6000fd5b507f8b5f04d03babb016851d2a4350431dc5d0f2c77964e7b4b87102c748b0ce225e833360405161059992919061123a565b60405180910390a1505050565b600160008154809291906105b990611292565b91905055506040518060e0016040528060015481526020018581526020018481526020018281526020018381526020013373ffffffffffffffffffffffffffffffffffffffff16815260200160011515815250600080600154815260200190815260200160002060008201518160000155602082015181600101908161063f9190611486565b5060408201518160020190816106559190611486565b50606082015181600301908161066b9190611486565b506080820151816004015560a08201518160050160006101000a81548173ffffffffffffffffffffffffffffffffffffffff021916908373ffffffffffffffffffffffffffffffffffffffff16021790555060c08201518160050160146101000a81548160ff0219169083151502179055509050507f0a5cbff699c97f898ef69ffa97d0ed987b89ea43818d5b95a7f3303f8af4c41d60015485858533604051610719959493929190611591565b60405180910390a150505050565b6060600060015467ffffffffffffffff81111561074757610746610ccd565b5b60405190808252806020026020018201604052801561078057816020015b61076d610a30565b8152602001906001900390816107655790505b5090506000600190505b6001548111610a28576000808281526020019081526020016000206040518060e0016040529081600082015481526020016001820180546107ca90611070565b80601f01602080910402602001604051908101604052809291908181526020018280546107f690611070565b80156108435780601f1061081857610100808354040283529160200191610843565b820191906000526020600020905b81548152906001019060200180831161082657829003601f168201915b5050505050815260200160028201805461085c90611070565b80601f016020809104026020016040519081016040528092919081815260200182805461088890611070565b80156108d55780601f106108aa576101008083540402835291602001916108d5565b820191906000526020600020905b8154815290600101906020018083116108b857829003601f168201915b505050505081526020016003820180546108ee90611070565b80601f016020809104026020016040519081016040528092919081815260200182805461091a90611070565b80156109675780601f1061093c57610100808354040283529160200191610967565b820191906000526020600020905b81548152906001019060200180831161094a57829003601f168201915b50505050508152602001600482015481526020016005820160009054906101000a900473ffffffffffffffffffffffffffffffffffffffff1673ffffffffffffffffffffffffffffffffffffffff1673ffffffffffffffffffffffffffffffffffffffff1681526020016005820160149054906101000a900460ff161515151581525050826001836109f991906115f2565b81518110610a0a57610a09611626565b5b60200260200101819052508080610a2090611292565b91505061078a565b508091505090565b6040518060e001604052806000815260200160608152602001606081526020016060815260200160008152602001600073ffffffffffffffffffffffffffffffffffffffff1681526020016000151581525090565b6000604051905090565b600080fd5b600080fd5b6000819050919050565b610aac81610a99565b8114610ab757600080fd5b50565b600081359050610ac981610aa3565b92915050565b600060208284031215610ae557610ae4610a8f565b5b6000610af384828501610aba565b91505092915050565b610b0581610a99565b82525050565b600081519050919050565b600082825260208201905092915050565b60005b83811015610b45578082015181840152602081019050610b2a565b60008484015250505050565b6000601f19601f8301169050919050565b6000610b6d82610b0b565b610b778185610b16565b9350610b87818560208601610b27565b610b9081610b51565b840191505092915050565b600073ffffffffffffffffffffffffffffffffffffffff82169050919050565b6000610bc682610b9b565b9050919050565b610bd681610bbb565b82525050565b60008115159050919050565b610bf181610bdc565b82525050565b600060e083016000830151610c0f6000860182610afc565b5060208301518482036020860152610c278282610b62565b91505060408301518482036040860152610c418282610b62565b91505060608301518482036060860152610c5b8282610b62565b9150506080830151610c706080860182610afc565b5060a0830151610c8360a0860182610bcd565b5060c0830151610c9660c0860182610be8565b508091505092915050565b60006020820190508181036000830152610cbb8184610bf7565b905092915050565b600080fd5b600080fd5b7f4e487b7100000000000000000000000000000000000000000000000000000000600052604160045260246000fd5b610d0582610b51565b810181811067ffffffffffffffff82111715610d2457610d23610ccd565b5b80604052505050565b6000610d37610a85565b9050610d438282610cfc565b919050565b600067ffffffffffffffff821115610d6357610d62610ccd565b5b610d6c82610b51565b9050602081019050919050565b82818337600083830152505050565b6000610d9b610d9684610d48565b610d2d565b905082815260208101848484011115610db757610db6610cc8565b5b610dc2848285610d79565b509392505050565b600082601f830112610ddf57610dde610cc3565b5b8135610def848260208601610d88565b91505092915050565b60008060008060808587031215610e1257610e11610a8f565b5b600085013567ffffffffffffffff811115610e3057610e2f610a94565b5b610e3c87828801610dca565b945050602085013567ffffffffffffffff811115610e5d57610e5c610a94565b5b610e6987828801610dca565b9350506040610e7a87828801610aba565b925050606085013567ffffffffffffffff811115610e9b57610e9a610a94565b5b610ea787828801610dca565b91505092959194509250565b600081519050919050565b600082825260208201905092915050565b6000819050602082019050919050565b600060e083016000830151610ef76000860182610afc565b5060208301518482036020860152610f0f8282610b62565b91505060408301518482036040860152610f298282610b62565b91505060608301518482036060860152610f438282610b62565b9150506080830151610f586080860182610afc565b5060a0830151610f6b60a0860182610bcd565b5060c0830151610f7e60c0860182610be8565b508091505092915050565b6000610f958383610edf565b905092915050565b6000602082019050919050565b6000610fb582610eb3565b610fbf8185610ebe565b935083602082028501610fd185610ecf565b8060005b8581101561100d5784840389528151610fee8582610f89565b9450610ff983610f9d565b925060208a01995050600181019050610fd5565b50829750879550505050505092915050565b600060208201905081810360008301526110398184610faa565b905092915050565b7f4e487b7100000000000000000000000000000000000000000000000000000000600052602260045260246000fd5b6000600282049050600182168061108857607f821691505b60208210810361109b5761109a611041565b5b50919050565b600082825260208201905092915050565b7f436172206973206e6f74206c697374656420666f722073616c65000000000000600082015250565b60006110e8601a836110a1565b91506110f3826110b2565b602082019050919050565b60006020820190508181036000830152611117816110db565b9050919050565b7f496e73756666696369656e742066756e647320746f206275792074686520636160008201527f7200000000000000000000000000000000000000000000000000000000000000602082015250565b600061117a6021836110a1565b91506111858261111e565b604082019050919050565b600060208201905081810360008301526111a98161116d565b9050919050565b7f4f776e65722063616e6e6f7420627579207468656972206f776e206361720000600082015250565b60006111e6601e836110a1565b91506111f1826111b0565b602082019050919050565b60006020820190508181036000830152611215816111d9565b9050919050565b61122581610a99565b82525050565b61123481610bbb565b82525050565b600060408201905061124f600083018561121c565b61125c602083018461122b565b9392505050565b7f4e487b7100000000000000000000000000000000000000000000000000000000600052601160045260246000fd5b600061129d82610a99565b91507fffffffffffffffffffffffffffffffffffffffffffffffffffffffffffffffff82036112cf576112ce611263565b5b600182019050919050565b60008190508160005260206000209050919050565b60006020601f8301049050919050565b600082821b905092915050565b60006008830261133c7fffffffffffffffffffffffffffffffffffffffffffffffffffffffffffffffff826112ff565b61134686836112ff565b95508019841693508086168417925050509392505050565b6000819050919050565b600061138361137e61137984610a99565b61135e565b610a99565b9050919050565b6000819050919050565b61139d83611368565b6113b16113a98261138a565b84845461130c565b825550505050565b600090565b6113c66113b9565b6113d1818484611394565b505050565b5b818110156113f5576113ea6000826113be565b6001810190506113d7565b5050565b601f82111561143a5761140b816112da565b611414846112ef565b81016020851015611423578190505b61143761142f856112ef565b8301826113d6565b50505b505050565b600082821c905092915050565b600061145d6000198460080261143f565b1980831691505092915050565b6000611476838361144c565b9150826002028217905092915050565b61148f82610b0b565b67ffffffffffffffff8111156114a8576114a7610ccd565b5b6114b28254611070565b6114bd8282856113f9565b600060209050601f8311600181146114f057600084156114de578287015190505b6114e8858261146a565b865550611550565b601f1984166114fe866112da565b60005b8281101561152657848901518255600182019150602085019450602081019050611501565b86831015611543578489015161153f601f89168261144c565b8355505b6001600288020188555050505b505050505050565b600061156382610b0b565b61156d81856110a1565b935061157d818560208601610b27565b61158681610b51565b840191505092915050565b600060a0820190506115a6600083018861121c565b81810360208301526115b88187611558565b905081810360408301526115cc8186611558565b90506115db606083018561121c565b6115e8608083018461122b565b9695505050505050565b60006115fd82610a99565b915061160883610a99565b92508282039050818111156116205761161f611263565b5b92915050565b7f4e487b7100000000000000000000000000000000000000000000000000000000600052603260045260246000fdfea26469706673582212208d911f941075e72d3e98d1f774feb1a6de56224e68940093ea8ece0266eac56d64736f6c634300081c0033",
  "linkReferences": {},
  "deployedLinkReferences": {}
}